{
  "_format": "hh-sol-artifact-1",
  "contractName": "Staking",
  "sourceName": "contracts/Staking.sol",
  "abi": [
    {
      "inputs": [
        {
          "internalType": "address",
          "name": "_stakingToken",
          "type": "address"
        },
        {
          "internalType": "uint256",
          "name": "_rewardRatePerSecond",
          "type": "uint256"
        }
      ],
      "stateMutability": "nonpayable",
      "type": "constructor"
    },
    {
      "inputs": [],
      "name": "InsufficientBalance",
      "type": "error"
    },
    {
      "inputs": [
        {
          "internalType": "address",
          "name": "owner",
          "type": "address"
        }
      ],
      "name": "OwnableInvalidOwner",
      "type": "error"
    },
    {
      "inputs": [
        {
          "internalType": "address",
          "name": "account",
          "type": "address"
        }
      ],
      "name": "OwnableUnauthorizedAccount",
      "type": "error"
    },
    {
      "inputs": [],
      "name": "ReentrancyGuardReentrantCall",
      "type": "error"
    },
    {
      "inputs": [
        {
          "internalType": "address",
          "name": "token",
          "type": "address"
        }
      ],
      "name": "SafeERC20FailedOperation",
      "type": "error"
    },
    {
      "inputs": [],
      "name": "ZeroAmount",
      "type": "error"
    },
    {
      "inputs": [],
      "name": "ZeroRewardRate",
      "type": "error"
    },
    {
      "anonymous": false,
      "inputs": [
        {
          "indexed": true,
          "internalType": "address",
          "name": "previousOwner",
          "type": "address"
        },
        {
          "indexed": true,
          "internalType": "address",
          "name": "newOwner",
          "type": "address"
        }
      ],
      "name": "OwnershipTransferred",
      "type": "event"
    },
    {
      "anonymous": false,
      "inputs": [
        {
          "indexed": true,
          "internalType": "address",
          "name": "funder",
          "type": "address"
        },
        {
          "indexed": false,
          "internalType": "uint256",
          "name": "amount",
          "type": "uint256"
        }
      ],
      "name": "RewardAdded",
      "type": "event"
    },
    {
      "anonymous": false,
      "inputs": [
        {
          "indexed": false,
          "internalType": "uint256",
          "name": "newRate",
          "type": "uint256"
        }
      ],
      "name": "RewardRateUpdated",
      "type": "event"
    },
    {
      "anonymous": false,
      "inputs": [
        {
          "indexed": true,
          "internalType": "address",
          "name": "user",
          "type": "address"
        },
        {
          "indexed": false,
          "internalType": "uint256",
          "name": "amount",
          "type": "uint256"
        }
      ],
      "name": "RewardsClaimed",
      "type": "event"
    },
    {
      "anonymous": false,
      "inputs": [
        {
          "indexed": true,
          "internalType": "address",
          "name": "user",
          "type": "address"
        },
        {
          "indexed": false,
          "internalType": "uint256",
          "name": "amount",
          "type": "uint256"
        }
      ],
      "name": "Staked",
      "type": "event"
    },
    {
      "anonymous": false,
      "inputs": [
        {
          "indexed": true,
          "internalType": "address",
          "name": "user",
          "type": "address"
        },
        {
          "indexed": false,
          "internalType": "uint256",
          "name": "amount",
          "type": "uint256"
        }
      ],
      "name": "Withdrawn",
      "type": "event"
    },
    {
      "inputs": [
        {
          "internalType": "uint256",
          "name": "amount",
          "type": "uint256"
        }
      ],
      "name": "addRewards",
      "outputs": [],
      "stateMutability": "nonpayable",
      "type": "function"
    },
    {
      "inputs": [
        {
          "internalType": "address",
          "name": "",
          "type": "address"
        }
      ],
      "name": "balanceOf",
      "outputs": [
        {
          "internalType": "uint256",
          "name": "",
          "type": "uint256"
        }
      ],
      "stateMutability": "view",
      "type": "function"
    },
    {
      "inputs": [],
      "name": "claimRewards",
      "outputs": [],
      "stateMutability": "nonpayable",
      "type": "function"
    },
    {
      "inputs": [
        {
          "internalType": "address",
          "name": "account",
          "type": "address"
        }
      ],
      "name": "earned",
      "outputs": [
        {
          "internalType": "uint256",
          "name": "",
          "type": "uint256"
        }
      ],
      "stateMutability": "view",
      "type": "function"
    },
    {
      "inputs": [],
      "name": "lastUpdateTime",
      "outputs": [
        {
          "internalType": "uint256",
          "name": "",
          "type": "uint256"
        }
      ],
      "stateMutability": "view",
      "type": "function"
    },
    {
      "inputs": [],
      "name": "owner",
      "outputs": [
        {
          "internalType": "address",
          "name": "",
          "type": "address"
        }
      ],
      "stateMutability": "view",
      "type": "function"
    },
    {
      "inputs": [],
      "name": "renounceOwnership",
      "outputs": [],
      "stateMutability": "nonpayable",
      "type": "function"
    },
    {
      "inputs": [
        {
          "internalType": "address",
          "name": "account",
          "type": "address"
        }
      ],
      "name": "rewardPerToken",
      "outputs": [
        {
          "internalType": "uint256",
          "name": "",
          "type": "uint256"
        }
      ],
      "stateMutability": "view",
      "type": "function"
    },
    {
      "inputs": [],
      "name": "rewardPerTokenStored",
      "outputs": [
        {
          "internalType": "uint256",
          "name": "",
          "type": "uint256"
        }
      ],
      "stateMutability": "view",
      "type": "function"
    },
    {
      "inputs": [],
      "name": "rewardRatePerSecond",
      "outputs": [
        {
          "internalType": "uint256",
          "name": "",
          "type": "uint256"
        }
      ],
      "stateMutability": "view",
      "type": "function"
    },
    {
      "inputs": [
        {
          "internalType": "address",
          "name": "",
          "type": "address"
        }
      ],
      "name": "rewards",
      "outputs": [
        {
          "internalType": "uint256",
          "name": "",
          "type": "uint256"
        }
      ],
      "stateMutability": "view",
      "type": "function"
    },
    {
      "inputs": [
        {
          "internalType": "uint256",
          "name": "newRate",
          "type": "uint256"
        }
      ],
      "name": "setRewardRate",
      "outputs": [],
      "stateMutability": "nonpayable",
      "type": "function"
    },
    {
      "inputs": [
        {
          "internalType": "uint256",
          "name": "amount",
          "type": "uint256"
        }
      ],
      "name": "stake",
      "outputs": [],
      "stateMutability": "nonpayable",
      "type": "function"
    },
    {
      "inputs": [],
      "name": "stakingToken",
      "outputs": [
        {
          "internalType": "contract IERC20",
          "name": "",
          "type": "address"
        }
      ],
      "stateMutability": "view",
      "type": "function"
    },
    {
      "inputs": [
        {
          "internalType": "address",
          "name": "",
          "type": "address"
        }
      ],
      "name": "totalClaimedRewards",
      "outputs": [
        {
          "internalType": "uint256",
          "name": "",
          "type": "uint256"
        }
      ],
      "stateMutability": "view",
      "type": "function"
    },
    {
      "inputs": [],
      "name": "totalStaked",
      "outputs": [
        {
          "internalType": "uint256",
          "name": "",
          "type": "uint256"
        }
      ],
      "stateMutability": "view",
      "type": "function"
    },
    {
      "inputs": [
        {
          "internalType": "address",
          "name": "newOwner",
          "type": "address"
        }
      ],
      "name": "transferOwnership",
      "outputs": [],
      "stateMutability": "nonpayable",
      "type": "function"
    },
    {
      "inputs": [
        {
          "internalType": "address",
          "name": "",
          "type": "address"
        }
      ],
      "name": "userRewardPerTokenPaid",
      "outputs": [
        {
          "internalType": "uint256",
          "name": "",
          "type": "uint256"
        }
      ],
      "stateMutability": "view",
      "type": "function"
    },
    {
      "inputs": [
        {
          "internalType": "uint256",
          "name": "amount",
          "type": "uint256"
        }
      ],
      "name": "withdraw",
      "outputs": [],
      "stateMutability": "nonpayable",
      "type": "function"
    }
  ],
  "bytecode": "0x60a060405234801561001057600080fd5b50604051610d19380380610d1983398101604081905261002f91610135565b60017f9b779b17422d0df92223018b32b4d1fa46e071723d6817e2486d003becc55f0055338061007957604051631e4fbdf760e01b81526000600482015260240160405180910390fd5b610082816100e5565b506001600160a01b0382166100aa57604051631f2a200560e01b815260040160405180910390fd5b806000036100cb576040516307ced7af60e01b815260040160405180910390fd5b6001600160a01b039091166080526001554260035561016f565b600080546001600160a01b038381166001600160a01b0319831681178455604051919092169283917f8be0079c531659141344cd1fd0a4f28419497f9722a3daafe3b4186f6b6457e09190a35050565b6000806040838503121561014857600080fd5b82516001600160a01b038116811461015f57600080fd5b6020939093015192949293505050565b608051610b736101a6600039600081816101be015281816104140152818161050c0152818161062001526106e50152610b736000f3fe608060405234801561001057600080fd5b50600436106101205760003560e01c80638b876347116100ad578063beceed3911610071578063beceed3914610278578063c8f33c911461028b578063df136d6514610294578063f12297771461029d578063f2fde38b146102b057600080fd5b80638b876347146102015780638da5cb5b146102215780639e447fc614610232578063a110b93f14610245578063a694fc3a1461026557600080fd5b80635d773b2c116100f45780635d773b2c1461018857806370a0823114610191578063715018a6146101b157806372f702f3146101b9578063817b1cd2146101f857600080fd5b80628cc262146101255780630700037d1461014b5780632e1a7d4d1461016b578063372500ab14610180575b600080fd5b610138610133366004610a60565b6102c3565b6040519081526020015b60405180910390f35b610138610159366004610a60565b60076020526000908152604090205481565b61017e610179366004610a89565b610367565b005b61017e61048b565b61013860015481565b61013861019f366004610a60565b60056020526000908152604090205481565b61017e610582565b6101e07f000000000000000000000000000000000000000000000000000000000000000081565b6040516001600160a01b039091168152602001610142565b61013860025481565b61013861020f366004610a60565b60066020526000908152604090205481565b6000546001600160a01b03166101e0565b61017e610240366004610a89565b610594565b610138610253366004610a60565b60086020526000908152604090205481565b61017e610273366004610a89565b6105e1565b61017e610286366004610a89565b6106b7565b61013860035481565b61013860045481565b6101386102ab366004610a60565b610745565b61017e6102be366004610a60565b6107b3565b6001600160a01b0381166000908152600560205260408120548082036103005750506001600160a01b031660009081526007602052604090205490565b6001600160a01b038316600090815260076020908152604080832054600690925290912054670de0b6b3a76400009061033886610745565b6103429190610ab8565b61034c9084610ad1565b6103569190610ae8565b6103609190610b0a565b9392505050565b61036f6107f3565b8060000361039057604051631f2a200560e01b815260040160405180910390fd5b336000908152600560205260409020548111156103c057604051631e9acf1760e31b815260040160405180910390fd5b6103c93361080f565b33600090815260056020526040812080548392906103e8908490610ab8565b9250508190555080600260008282546104019190610ab8565b9091555061043b90506001600160a01b037f0000000000000000000000000000000000000000000000000000000000000000163383610865565b60405181815233907f7084f5476618d8e60b11ef0d7d3f06914655adb8793e28ff7f018d4c76d505d5906020015b60405180910390a26104886001600080516020610b1e83398151915255565b50565b6104936107f3565b61049c3361080f565b33600090815260076020526040812054908190036104cd57604051631f2a200560e01b815260040160405180910390fd5b3360009081526007602090815260408083208390556008909152812080548392906104f9908490610b0a565b9091555061053390506001600160a01b037f0000000000000000000000000000000000000000000000000000000000000000163383610865565b60405181815233907ffc30cddea38e2bf4d6ea7d3f9ed3b6ad7f176419f4963bd81318067a4aee73fe9060200160405180910390a2506105806001600080516020610b1e83398151915255565b565b61058a61089f565b61058060006108cc565b61059c61089f565b6105a6600061080f565b60018190556040518181527f41d466ebd06fb97e7786086ac8b69b7eb7da798592036251291d34e9791cde019060200160405180910390a150565b6105e96107f3565b8060000361060a57604051631f2a200560e01b815260040160405180910390fd5b6106133361080f565b6106486001600160a01b037f00000000000000000000000000000000000000000000000000000000000000001633308461091c565b3360009081526005602052604081208054839290610667908490610b0a565b9250508190555080600260008282546106809190610b0a565b909155505060405181815233907f9e71bc8eea02a63969f509818f2dafb9254532904319f9dbda79b67bd34a5f3d90602001610469565b806000036106d857604051631f2a200560e01b815260040160405180910390fd5b61070d6001600160a01b037f00000000000000000000000000000000000000000000000000000000000000001633308461091c565b60405181815233907fac24935fd910bc682b5ccb1a07b718cadf8cf2f6d1404c4f3ddc3662dae40e299060200160405180910390a250565b60025460009080820361075c575050600454919050565b60006003544261076c9190610ab8565b905060006001548261077e9190610ad1565b90508261079382670de0b6b3a7640000610ad1565b61079d9190610ae8565b6004546107aa9190610b0a565b95945050505050565b6107bb61089f565b6001600160a01b0381166107ea57604051631e4fbdf760e01b8152600060048201526024015b60405180910390fd5b610488816108cc565b6107fb610958565b6002600080516020610b1e83398151915255565b61081881610745565b600455426003556001600160a01b0381161561048857610837816102c3565b6001600160a01b03821660009081526007602090815260408083209390935560045460069091529190205550565b6108728383836001610988565b61089a57604051635274afe760e01b81526001600160a01b03841660048201526024016107e1565b505050565b6000546001600160a01b031633146105805760405163118cdaa760e01b81523360048201526024016107e1565b600080546001600160a01b038381166001600160a01b0319831681178455604051919092169283917f8be0079c531659141344cd1fd0a4f28419497f9722a3daafe3b4186f6b6457e09190a35050565b61092a8484848460016109ee565b61095257604051635274afe760e01b81526001600160a01b03851660048201526024016107e1565b50505050565b600080516020610b1e8339815191525460020361058057604051633ee5aeb560e01b815260040160405180910390fd5b60405163a9059cbb60e01b60008181526001600160a01b038616600452602485905291602083604481808b5af1925060016000511483166109e25783831516156109d5573d6000823e3d81fd5b6000873b113d1516831692505b60405250949350505050565b6040516323b872dd60e01b60008181526001600160a01b038781166004528616602452604485905291602083606481808c5af192506001600051148316610a4e578383151615610a41573d6000823e3d81fd5b6000883b113d1516831692505b60405250600060605295945050505050565b600060208284031215610a7257600080fd5b81356001600160a01b038116811461036057600080fd5b600060208284031215610a9b57600080fd5b5035919050565b634e487b7160e01b600052601160045260246000fd5b81810381811115610acb57610acb610aa2565b92915050565b8082028115828204841417610acb57610acb610aa2565b600082610b0557634e487b7160e01b600052601260045260246000fd5b500490565b80820180821115610acb57610acb610aa256fe9b779b17422d0df92223018b32b4d1fa46e071723d6817e2486d003becc55f00a264697066735822122096fb61dda954bef6c9b225484139501d1b98a95f58a3d17516ada62c1a50158164736f6c63430008180033",
  "linkReferences": {},
  "deployedLinkReferences": {}
}