{
  "_format": "hh-sol-artifact-1",
  "contractName": "Staking",
  "sourceName": "contracts/Staking.sol",
  "abi": [
    {
      "inputs": [
        {
          "internalType": "address",
          "name": "_stakingToken",
          "type": "address"
        },
        {
          "internalType": "uint256",
          "name": "_rewardRatePerSecond",
          "type": "uint256"
        }
      ],
      "stateMutability": "nonpayable",
      "type": "constructor"
    },
    {
      "inputs": [],
      "name": "InsufficientBalance",
      "type": "error"
    },
    {
      "inputs": [
        {
          "internalType": "address",
          "name": "owner",
          "type": "address"
        }
      ],
      "name": "OwnableInvalidOwner",
      "type": "error"
    },
    {
      "inputs": [
        {
          "internalType": "address",
          "name": "account",
          "type": "address"
        }
      ],
      "name": "OwnableUnauthorizedAccount",
      "type": "error"
    },
    {
      "inputs": [],
      "name": "ReentrancyGuardReentrantCall",
      "type": "error"
    },
    {
      "inputs": [
        {
          "internalType": "address",
          "name": "token",
          "type": "address"
        }
      ],
      "name": "SafeERC20FailedOperation",
      "type": "error"
    },
    {
      "inputs": [],
      "name": "ZeroAmount",
      "type": "error"
    },
    {
      "inputs": [],
      "name": "ZeroRewardRate",
      "type": "error"
    },
    {
      "anonymous": false,
      "inputs": [
        {
          "indexed": true,
          "internalType": "address",
          "name": "previousOwner",
          "type": "address"
        },
        {
          "indexed": true,
          "internalType": "address",
          "name": "newOwner",
          "type": "address"
        }
      ],
      "name": "OwnershipTransferred",
      "type": "event"
    },
    {
      "anonymous": false,
      "inputs": [
        {
          "indexed": false,
          "internalType": "uint256",
          "name": "newRate",
          "type": "uint256"
        }
      ],
      "name": "RewardRateUpdated",
      "type": "event"
    },
    {
      "anonymous": false,
      "inputs": [
        {
          "indexed": true,
          "internalType": "address",
          "name": "user",
          "type": "address"
        },
        {
          "indexed": false,
          "internalType": "uint256",
          "name": "amount",
          "type": "uint256"
        }
      ],
      "name": "RewardsClaimed",
      "type": "event"
    },
    {
      "anonymous": false,
      "inputs": [
        {
          "indexed": true,
          "internalType": "address",
          "name": "user",
          "type": "address"
        },
        {
          "indexed": false,
          "internalType": "uint256",
          "name": "amount",
          "type": "uint256"
        }
      ],
      "name": "Staked",
      "type": "event"
    },
    {
      "anonymous": false,
      "inputs": [
        {
          "indexed": true,
          "internalType": "address",
          "name": "user",
          "type": "address"
        },
        {
          "indexed": false,
          "internalType": "uint256",
          "name": "amount",
          "type": "uint256"
        }
      ],
      "name": "Withdrawn",
      "type": "event"
    },
    {
      "inputs": [
        {
          "internalType": "address",
          "name": "",
          "type": "address"
        }
      ],
      "name": "balanceOf",
      "outputs": [
        {
          "internalType": "uint256",
          "name": "",
          "type": "uint256"
        }
      ],
      "stateMutability": "view",
      "type": "function"
    },
    {
      "inputs": [],
      "name": "claimRewards",
      "outputs": [],
      "stateMutability": "nonpayable",
      "type": "function"
    },
    {
      "inputs": [
        {
          "internalType": "address",
          "name": "account",
          "type": "address"
        }
      ],
      "name": "earned",
      "outputs": [
        {
          "internalType": "uint256",
          "name": "",
          "type": "uint256"
        }
      ],
      "stateMutability": "view",
      "type": "function"
    },
    {
      "inputs": [],
      "name": "lastUpdateTime",
      "outputs": [
        {
          "internalType": "uint256",
          "name": "",
          "type": "uint256"
        }
      ],
      "stateMutability": "view",
      "type": "function"
    },
    {
      "inputs": [],
      "name": "owner",
      "outputs": [
        {
          "internalType": "address",
          "name": "",
          "type": "address"
        }
      ],
      "stateMutability": "view",
      "type": "function"
    },
    {
      "inputs": [],
      "name": "renounceOwnership",
      "outputs": [],
      "stateMutability": "nonpayable",
      "type": "function"
    },
    {
      "inputs": [
        {
          "internalType": "address",
          "name": "account",
          "type": "address"
        }
      ],
      "name": "rewardPerToken",
      "outputs": [
        {
          "internalType": "uint256",
          "name": "",
          "type": "uint256"
        }
      ],
      "stateMutability": "view",
      "type": "function"
    },
    {
      "inputs": [],
      "name": "rewardPerTokenStored",
      "outputs": [
        {
          "internalType": "uint256",
          "name": "",
          "type": "uint256"
        }
      ],
      "stateMutability": "view",
      "type": "function"
    },
    {
      "inputs": [],
      "name": "rewardRatePerSecond",
      "outputs": [
        {
          "internalType": "uint256",
          "name": "",
          "type": "uint256"
        }
      ],
      "stateMutability": "view",
      "type": "function"
    },
    {
      "inputs": [
        {
          "internalType": "address",
          "name": "",
          "type": "address"
        }
      ],
      "name": "rewards",
      "outputs": [
        {
          "internalType": "uint256",
          "name": "",
          "type": "uint256"
        }
      ],
      "stateMutability": "view",
      "type": "function"
    },
    {
      "inputs": [
        {
          "internalType": "uint256",
          "name": "newRate",
          "type": "uint256"
        }
      ],
      "name": "setRewardRate",
      "outputs": [],
      "stateMutability": "nonpayable",
      "type": "function"
    },
    {
      "inputs": [
        {
          "internalType": "uint256",
          "name": "amount",
          "type": "uint256"
        }
      ],
      "name": "stake",
      "outputs": [],
      "stateMutability": "nonpayable",
      "type": "function"
    },
    {
      "inputs": [],
      "name": "stakingToken",
      "outputs": [
        {
          "internalType": "contract IERC20",
          "name": "",
          "type": "address"
        }
      ],
      "stateMutability": "view",
      "type": "function"
    },
    {
      "inputs": [],
      "name": "totalStaked",
      "outputs": [
        {
          "internalType": "uint256",
          "name": "",
          "type": "uint256"
        }
      ],
      "stateMutability": "view",
      "type": "function"
    },
    {
      "inputs": [
        {
          "internalType": "address",
          "name": "newOwner",
          "type": "address"
        }
      ],
      "name": "transferOwnership",
      "outputs": [],
      "stateMutability": "nonpayable",
      "type": "function"
    },
    {
      "inputs": [
        {
          "internalType": "address",
          "name": "",
          "type": "address"
        }
      ],
      "name": "userRewardPerTokenPaid",
      "outputs": [
        {
          "internalType": "uint256",
          "name": "",
          "type": "uint256"
        }
      ],
      "stateMutability": "view",
      "type": "function"
    },
    {
      "inputs": [
        {
          "internalType": "uint256",
          "name": "amount",
          "type": "uint256"
        }
      ],
      "name": "withdraw",
      "outputs": [],
      "stateMutability": "nonpayable",
      "type": "function"
    }
  ],
  "bytecode": "0x60a060405234801561001057600080fd5b50604051610bf4380380610bf483398101604081905261002f91610135565b60017f9b779b17422d0df92223018b32b4d1fa46e071723d6817e2486d003becc55f0055338061007957604051631e4fbdf760e01b81526000600482015260240160405180910390fd5b610082816100e5565b506001600160a01b0382166100aa57604051631f2a200560e01b815260040160405180910390fd5b806000036100cb576040516307ced7af60e01b815260040160405180910390fd5b6001600160a01b039091166080526001554260035561016f565b600080546001600160a01b038381166001600160a01b0319831681178455604051919092169283917f8be0079c531659141344cd1fd0a4f28419497f9722a3daafe3b4186f6b6457e09190a35050565b6000806040838503121561014857600080fd5b82516001600160a01b038116811461015f57600080fd5b6020939093015192949293505050565b608051610a5561019f600039600081816101a8015281816103a50152818161047401526105900152610a556000f3fe608060405234801561001057600080fd5b506004361061010a5760003560e01c8063817b1cd2116100a2578063a694fc3a11610071578063a694fc3a1461022f578063c8f33c9114610242578063df136d651461024b578063f122977714610254578063f2fde38b1461026757600080fd5b8063817b1cd2146101e25780638b876347146101eb5780638da5cb5b1461020b5780639e447fc61461021c57600080fd5b80635d773b2c116100de5780635d773b2c1461017257806370a082311461017b578063715018a61461019b57806372f702f3146101a357600080fd5b80628cc2621461010f5780630700037d146101355780632e1a7d4d14610155578063372500ab1461016a575b600080fd5b61012261011d366004610941565b61027a565b6040519081526020015b60405180910390f35b610122610143366004610941565b60076020526000908152604090205481565b610168610163366004610971565b6102f8565b005b61016861041c565b61012260015481565b610122610189366004610941565b60056020526000908152604090205481565b6101686104f2565b6101ca7f000000000000000000000000000000000000000000000000000000000000000081565b6040516001600160a01b03909116815260200161012c565b61012260025481565b6101226101f9366004610941565b60066020526000908152604090205481565b6000546001600160a01b03166101ca565b61016861022a366004610971565b610504565b61016861023d366004610971565b610551565b61012260035481565b61012260045481565b610122610262366004610941565b610627565b610168610275366004610941565b610694565b6001600160a01b0381166000908152600760209081526040808320546006909252822054670de0b6b3a7640000906102b185610627565b6102bb91906109a0565b6001600160a01b0385166000908152600560205260409020546102de91906109b3565b6102e891906109ca565b6102f291906109ec565b92915050565b6103006106d4565b8060000361032157604051631f2a200560e01b815260040160405180910390fd5b3360009081526005602052604090205481111561035157604051631e9acf1760e31b815260040160405180910390fd5b61035a336106f0565b33600090815260056020526040812080548392906103799084906109a0565b92505081905550806002600082825461039291906109a0565b909155506103cc90506001600160a01b037f0000000000000000000000000000000000000000000000000000000000000000163383610746565b60405181815233907f7084f5476618d8e60b11ef0d7d3f06914655adb8793e28ff7f018d4c76d505d5906020015b60405180910390a26104196001600080516020610a0083398151915255565b50565b6104246106d4565b61042d336106f0565b336000908152600760205260408120549081900361045e57604051631f2a200560e01b815260040160405180910390fd5b336000818152600760205260408120556104a3907f00000000000000000000000000000000000000000000000000000000000000006001600160a01b03169083610746565b60405181815233907ffc30cddea38e2bf4d6ea7d3f9ed3b6ad7f176419f4963bd81318067a4aee73fe9060200160405180910390a2506104f06001600080516020610a0083398151915255565b565b6104fa610780565b6104f060006107ad565b61050c610780565b61051660006106f0565b60018190556040518181527f41d466ebd06fb97e7786086ac8b69b7eb7da798592036251291d34e9791cde019060200160405180910390a150565b6105596106d4565b8060000361057a57604051631f2a200560e01b815260040160405180910390fd5b610583336106f0565b6105b86001600160a01b037f0000000000000000000000000000000000000000000000000000000000000000163330846107fd565b33600090815260056020526040812080548392906105d79084906109ec565b9250508190555080600260008282546105f091906109ec565b909155505060405181815233907f9e71bc8eea02a63969f509818f2dafb9254532904319f9dbda79b67bd34a5f3d906020016103fa565b600060025460000361063b57505060045490565b60006003544261064b91906109a0565b905060006001548261065d91906109b3565b60025490915061067582670de0b6b3a76400006109b3565b61067f91906109ca565b60045461068c91906109ec565b949350505050565b61069c610780565b6001600160a01b0381166106cb57604051631e4fbdf760e01b8152600060048201526024015b60405180910390fd5b610419816107ad565b6106dc610839565b6002600080516020610a0083398151915255565b6106f981610627565b600455426003556001600160a01b03811615610419576107188161027a565b6001600160a01b03821660009081526007602090815260408083209390935560045460069091529190205550565b6107538383836001610869565b61077b57604051635274afe760e01b81526001600160a01b03841660048201526024016106c2565b505050565b6000546001600160a01b031633146104f05760405163118cdaa760e01b81523360048201526024016106c2565b600080546001600160a01b038381166001600160a01b0319831681178455604051919092169283917f8be0079c531659141344cd1fd0a4f28419497f9722a3daafe3b4186f6b6457e09190a35050565b61080b8484848460016108cf565b61083357604051635274afe760e01b81526001600160a01b03851660048201526024016106c2565b50505050565b600080516020610a00833981519152546002036104f057604051633ee5aeb560e01b815260040160405180910390fd5b60405163a9059cbb60e01b60008181526001600160a01b038616600452602485905291602083604481808b5af1925060016000511483166108c35783831516156108b6573d6000823e3d81fd5b6000873b113d1516831692505b60405250949350505050565b6040516323b872dd60e01b60008181526001600160a01b038781166004528616602452604485905291602083606481808c5af19250600160005114831661092f578383151615610922573d6000823e3d81fd5b6000883b113d1516831692505b60405250600060605295945050505050565b60006020828403121561095357600080fd5b81356001600160a01b038116811461096a57600080fd5b9392505050565b60006020828403121561098357600080fd5b5035919050565b634e487b7160e01b600052601160045260246000fd5b818103818111156102f2576102f261098a565b80820281158282048414176102f2576102f261098a565b6000826109e757634e487b7160e01b600052601260045260246000fd5b500490565b808201808211156102f2576102f261098a56fe9b779b17422d0df92223018b32b4d1fa46e071723d6817e2486d003becc55f00a26469706673582212201ff8cb795a2b044066b7d78082130fce0ccb81747e84bcc0b4cc5d5348b7582f64736f6c63430008180033",
  "linkReferences": {},
  "deployedLinkReferences": {}
}